:02364F003165E3
:02365100361E23
:023653002A58F3
:023657002E4BF8
:02365900360D2C
:030000000229CC06
:0C29CC00787FE4F6D8FD758138022A13EC
:093667005F50415355452021003C
:0D3367004300EB0C00004400EE00000000ED
:10272E007F0A1234FA9000DBE4F0A37463F0900099
:10273E00DBE0FEA3E0FFEEFF7E00900135EFF090B0
:10274E0000DBE0FEA3E0FF900134EFF09001377460
:10275E0003F090013674E8F07F001232B490013528
:10276E00EFF07F021232B4900134EFF07F04123298
:10277E00B4900137EFF07F061232B4900136EFF0CD
:10278E00900135E0FF7E00EF7F00FE900134E0FD0A
:10279E007C00EE4CFEEF4DFF9000DBEEF0A3EFF071
:1027AE009000DBE0FEA3E0FF9000DFEEF0A3EFF081
:1027BE00900137E0FF7E00EF7F00FE900136E0FDD6
:1027CE007C00EE4CFEEF4DFF9000E7EEF0A3EFF035
:0527DE007F641234FAD3
:0127E30022D3
:10316500D2CCD2A6C2A77F807E257D007C00122FFF
:103175001C7F0312351D12000312332C12363F1229
:10318500272E9000E1E4F0C2A61225B11212087FA5
:103195000212154F7F0112154F7F0412154F7F053F
:0931A50012154F7F001215D8220B
:102A58009000EDE004FFF0EFB43C259000EDE4F0C9
:102A68009000ECE004FFF0EFB43C159000ECE4F0CB
:102A78009000EBE004FFF0EFB418059000EBE4F0F1
:102A88009000E1E0FFEF640160099000E1E0FFEFF2
:102A9800B4040E9000DCE024FFF09000DBE034FF8B
:102AA800F09000DBE0FEA3E0FFD3EF9400EE94008B
:102AB80050189000E1E4F09000DFE0FEA3E0FF9002
:102AC80000DBEEF0A3EFF0121208B2CC7B007A0024
:0B2AD8007DC87F80121661022A582280
:102E4B00800F9000E17402F07BFF7A3679671231C4
:102E5B00AE9000E1E0FFEFB40405122896803C90A1
:102E6B0000E1E0FFEFB4010512228B802E9000E110
:102E7B00E0FFEFB4020512367080209000E1E0FF16
:102E8B00EF700512367080139000E1E0FFEFB40590
:102E9B000A7DC87F01122EB41236707B007A007D3A
:092EAB00147F8012166180A92237
:10360D00121CA97B007A007D1E7F0212166180F0CC
:01361D00228A
:10361E00122AE37B007A007DC87F0212166180F0C9
:01362E002279
:102F1C00900138121A1353A2BF759850900138E0E3
:102F2C00F8A3E0F9A3E0FAA3E0FB7F807E8D7D5B44
:102F3C007C00121947EFF404F5D7900138E0F8A3A0
:102F4C00E0F9A3E0FAA3E0FB7F807E8D7D5B7C0043
:102F5C00121947A804A905AA06AB07C3E49BFFE412
:102F6C009AFE740199FDE498FC7808121A008FD629
:072F7C00758E14438E012243
:1035FB0090017CEFF090017CE0FF8F993099FDC238
:02360B00992202
:1031AE00900158EBF0A3EAF0A3E9F0900158E0FB90
:1031BE00A3E0FAA3E0F9121832FFEF60299001584C
:1031CE00E0FBA3E0FAA3E0F9EA494B60199001583D
:1031DE00E0FBA3E475F0011218F5A9F0FA1218320B
:0731EE00FF1235FB80C52232
:1034460090013CEBF0A3EAF0A3E9F090013FEDF028
:1034560090013FE0FF14F0EF601990013CE0FBA300
:10346600E475F0011218F5A9F0FA121832FF1235B8
:04347600FB80DD22D8
:103540005F52554E21005F50415355452021005F89
:1035500053544F50210054494D452055502B2B2B8F
:02356000210048
:093374004100E4004200E9000000
:102677009000DFE0FEA3E0FFEEFF7E009000E3EFB7
:10268700F09000DFE0FEA3E0FF9000E6EFF090009F
:10269700E7E0FEA3E0FFEEFF7E009000DEEFF090A4
:1026A70000E7E0FEA3E0FF9000E5EFF07F0A1234B9
:1026B700FA9000DEE0FF1235FB7F0A1234FA900031
:1026C700E5E0FF1235FB7F0A1234FA7F0012347AF5
:1026D7007F0212347A7F0412347A7F0612347A7FAB
:1026E7000A1234FA9000E3E0FD7F0012327790007F
:1026F700E6E0FD7F021232779000DEE0FD7F0412F4
:1027070032779000E5E0FD7F061232779000DEE039
:10271700FF1235FB7F0A1234FA9000E5E0FF12350D
:07272700FB7F0A1234FA22C5
:0700030043917C539203229C
:1034AB009000E1E0FFEF70199000DFE0FEA3E0FF7A
:1034BB009000DBEEF0A3EFF07BFF7A357940123111
:0834CB00AE9000E17404F02250
:102F83009000E1E0FFEFB401109000E17402F07BE8
:102F9300FF7A3579461231AE229000E1E0FFEF640B
:102FA3000260249000E1E0FFEFB404047F0180029B
:102FB3007F009000E1E0FEEEB405047E0180027E16
:102FC30000EE4FFFEF601E9000E1E4F07BFF7A35E7
:102FD300794F1231AE9000DFE0FEA3E0FF9000DBFB
:062FE300EEF0A3EFF02266
:102B6A009000E4E0FFEFB401109000E8E02432F0B6
:102B7A009000E7E03400F080169000E4E0FFEF7088
:102B8A000E9000E8E0240AF09000E7E03400F090AC
:102B9A0000E7E0FEA3E0FFC3EF94D6EE9406400AF6
:102BAA009000E77406F0A374D6F09000E1E0FFEF1E
:102BBA00B4010312228B9000E1E0FFEF7021900034
:102BCA00E7E0FEA3E0FFEEFF7E009000DEEFF0906C
:102BDA0000E7E0FEA3E0FF9000E5EFF0122677227F
:102BEA009000E4E0FFEFB401109000E8E024CEF09A
:102BFA009000E7E034FFF080169000E4E0FFEF7009
:102C0A000E9000E8E024F6F09000E7E034FFF09040
:102C1A0000E7E0FEA3E0FFD3EF94F4EE9401500A3C
:102C2A009000E77401F0A374F4F09000E1E0FFEF84
:102C3A00B4010312228B9000E1E0FFEF70219000B3
:102C4A00E7E0FEA3E0FFEEFF7E009000DEEFF090EB
:102C5A0000E7E0FEA3E0FF9000E5EFF012267722FE
:102DE1009000DFE0FEA3E0FFC3EF9484EE94034084
:102DF1000C9000DF7403F0A37484F080399000E438
:102E0100E0FFEFB401109000E0E0240AF09000DF51
:102E1100E03400F080209000E4E0FFEF70189000B3
:102E2100DBE0FEA3E0FFEF2401FFEE3400FE9000A3
:102E3100DFEEF0A3EFF01226779000DFE0FEA3E0D3
:0A2E4100FF9000DBEEF0A3EFF0229B
:1030A9009000DFE0FEA3E0FFD3EF940AEE94005016
:1030B9000B9000DFE4F0A3740AF0802F9000E4E0A5
:1030C900FFEFB401109000E0E024F6F09000DFE09B
:1030D90034FFF080169000E4E0FFEF700E9000E0FE
:1030E900E024FFF09000DFE034FFF0122677900033
:0F30F900DFE0FEA3E0FF9000DBEEF0A3EFF0229C
:101CA90090016AE4F0E590F4FFEF54FCFF90016ABB
:101CB900EFF0E59064FCFF90016BEFF09000DDE040
:101CC900FF90016BE0FEEE6FFF90016BE0FEEF5EAF
:101CD900FF9000E2EFF090016BE0FF9000DDEFF084
:101CE90090016AE0FFEF30E70E9000E1E0FFEF605E
:101CF90006122F8312120890016AE0FFEF30E647BF
:101D09009000E2E0FFEF60089000E9E4F0A3E4F05E
:101D19009000DDE0FFEF602F9000E9E0FEA3E0FF17
:101D2900C3EF9401EE940050109000EAE004F070C3
:101D3900069000E9E004F0800E9000E1E0FFEF700A
:101D4900061234AB12120890016AE0FFEF30E2602C
:101D59009000E1E0FFEF70589000E2E0FFEF600DC6
:101D69009000E4E4F09000E9E4F0A3E4F09000DDF1
:101D7900E0FFEF60359000E9E0FEA3E0FFD3EF94C8
:101D890006EE940050159000E4E4F09000EAE004B7
:101D9900F070069000E9E004F0800F9000E474010F
:101DA900F07BFF7A3579561231AE122DE112120805
:101DB90090016AE0FFEF30E3579000E1E0FFEF7038
:101DC9004F9000E2E0FFEF600D9000E4E4F0900036
:101DD900E9E4F0A3E4F09000DDE0FFEF602C90006F
:101DE900E9E0FEA3E0FFD3EF9406EE9400501590CE
:101DF90000E4E4F09000EAE004F070069000E9E005
:101E090004F080069000E47401F01230A91212085F
:101E190090016AE0FFEF30E44F9000E2E0FFEF60ED
:101E29000D9000E4E4F09000E9E4F0A3E4F0900000
:101E3900DDE0FFEF602C9000E9E0FEA3E0FFD3EFC7
:101E49009406EE940050159000E4E4F09000EAE066
:101E590004F070069000E9E004F080069000E47454
:101E690001F0122B6A12120890016AE0FFEF30E5C7
:101E79004F9000E2E0FFEF600D9000E4E4F0900085
:101E8900E9E4F0A3E4F09000DDE0FFEF602C9000BE
:101E9900E9E0FEA3E0FFD3EF9406EE94005015901D
:101EA90000E4E4F09000EAE004F070069000E9E054
:101EB90004F080069000E47401F0122BEA12120873
:011EC90022F6
:0534FA0090016CEFF0F1
:1034FF0090016CE0FF14F0EF601390016DE4F09019
:0D350F00016DE004FFF0EF60E780F480E361
:01351C00228C
:10362F0075C70075C50075C60075C38075C40022C7
:0832B40090015BEEF0A3EFF0C6
:1032BC0075C78175C50190015BE0FEA3E0FF8FC46B
:1032CC0090015BE0FEA3E0FFEEFF7E008FC375C6AE
:1032DC005A75C6A50090015DE5C2F012362F90011B
:0332EC005DE0FFA3
:0132EF0022BC
:1032770090015EEEF0A3EFF0900160EDF075C7816D
:1032870075C50290015EE0FEA3E0FF8FC490015E6A
:10329700E0FEA3E0FFEEFF7E008FC3900160E0FF3A
:0D32A7008FC275C65A75C6A50012362F22BB
:10347A0090016EEEF0A3EFF075C78175C503900158
:10348A006EE0FEA3E0FF8FC490016EE0FEA3E0FFB2
:10349A00EEFF7E008FC375C65A75C6A50012362F79
:0134AA0022FF
:10000E004D4F544F5F52554E212121004D6F746F4D
:10001E0020576F726B204572726F720050574D20D1
:0C002E004D4F544F5F4552524F5221007D
:0C337D004100B3004100B61E4100AA0050
:102EB400900170EFF0900171EDF0900170E0FFEF80
:102EC400D3940040529000AAE4F0900171E0FF9086
:102ED40000AAE0FEEEC39F5011D2A67F0A7E001224
:102EE40032F09000AAE004F080E09000AAE4F090B0
:102EF4000171E0FF9000AAE0FEEEC39F5011C2A64C
:102F04007F0A7E001232F09000AAE004F080E09084
:082F14000170E014F080A3221B
:10351D0090017DEFF0E5A254CFF5A290017DE0FF83
:10352D008FD975E90075F9009000AB7402F0A374A2
:03353D0004F02275
:10293C0090012EEFF090012FEDF0900130EAF0A312
:02294C00EBF0AE
:10294E00900132E4F0A3E4F0900130E0FEA3E0FF4A
:10295E00C374FF9FFF74FF9EFE900132EEF0A3EF53
:10296E00F090012EE0FFEF7052900132E0FEA3E0F6
:10297E00FF8FEA900132E0FEA3E0FFEEFF7E008FB4
:10298E00FA90012FE0FFEF121A2B29A80029BC01A3
:10299E0029C10229C603000029C975DA4275DB2157
:1029AE0075F44075EC2075FC2075DC42800D75DAEF
:0D29BE0053800875DA63800375DA33D2DECA
:0129CB0022E9
:05367000C2A7C2DE222A
:10289600D2A79000B3E0FFEFC3940150077D327FCB
:1028A60002122EB49000B6E0FF9000B3E0FEEEC335
:1028B6009F506E9000E7E0FEA3E0FFEF240CFFEED2
:1028C60034FEFE7C007D0A12188A9000ABE0FCA361
:1028D600E0FD1218789000ADEEF0A3EFF09000B690
:1028E600E0FFEFFD7C009000ADE0FEA3E0FF1218D4
:1028F6008A9000B3E0FD7C00121878EF24E8FFEE22
:102906003403FE9000C3EEF0A3EFF09000C3E0FAAC
:10291600A3E0FB7D007F0012293C9000B3E004F0A9
:10292600229000B3E4F09000E17401F07BFF7A009E
:06293600790E1231AE2201
:10228B007FEE1235FB9000A6E0FCA3E0FDA3E0FE81
:10229B00A3E0FF7818121A001235FB9000A6E0FCA1
:1022AB00A3E0FDA3E0FEA3E0FF7810121A001235A5
:1022BB00FB9000A6E0FCA3E0FDA3E0FEA3E0FF780B
:1022CB0008121A001235FB9000A6E0FCA3E0FDA358
:1022DB00E0FEA3E0FF1235FB7F007EF07D037C0068
:1022EB009000A6E0F8A3E0F9A3E0FAA3E0FBD31279
:1022FB0019EF40167BFF7A00791A1231AE12367045
:10230B009000E17405F0121208227B0C7A00790020
:10231B0078009000A6E0FCA3E0FDA3E0FEA3E0FFA5
:10232B001219479000B7121A139000B7E0F8A3E008
:10233B00F9A3E0FAA3E0FB7F007E877D937C031279
:10234B0019479000AF121A139000AFE0FCA3E0FD09
:10235B00A3E0FEA3E0FF9000E7E0FCA3E0FDC3EDEC
:10236B009FFFEC9EFE12365BD3EF9405EE648094D8
:10237B0080500302240D9000E7E0FEA3E0FFE4FC95
:10238B00FD9000AFE0F8A3E0F9A3E0FAA3E0FBC3F4
:10239B001219EF50109000C4E024D4F09000C3E069
:1023AB0034FEF0800E9000C4E0242CF09000C3E0CB
:1023BB003401F09000C3E0FEA3E0FFE4FCFD7BFFE3
:1023CB007AFF79007800C31219D940119000C3E04D
:1023DB00FEA3E0FFC3EF94E8EE94035016123670A1
:1023EB009000E17405F07BFF7A00792A1231AE126E
:1023FB001208229000C3E0FAA3E0FB7D007F0012DD
:03240B00293C2247
:03003B0002240E8E
:10240E00C0E0C0F0C083C082C0D075D000C000C094
:10241E0001C002C003C004C005C006C00730D80208
:10242E00C2D820D9030224B6C2D930DF15E5FB206D
:10243E00E710C2DF9000B5E004F070069000B4E043
:10244E0004F09000BFE0FCA3E0FDA3E0FEA3E0FFDC
:10245E009000BB121A139000C2E5EBF09000C1E59C
:10246E00FBF09000B4E0FEA3E0FF9000C0EFF09010
:10247E0000BFE4F09000BBE0F8A3E0F9A3E0FAA3FC
:10248E00E0FB9000BFE0FCA3E0FDA3E0FEA3E0FFB5
:10249E00C3EF9BFFEE9AFEED99FDEC98FC9000A623
:1024AE00121A139000A6E4F030DF10C2DF9000B5D0
:1024BE00E004F070069000B4E004F0D007D006D02F
:1024CE0005D004D003D002D001D000D0D0D082D01D
:0624DE0083D0F0D0E032D3
:10003E0052756E2020005061757365004C49445F07
:10004E0055500053544F5020004572726F7200325B
:10005E003435383A0053544154453A00253464003F
:10006E0025303264003A253032640072706D002003
:10007E006D696E005469737375652F4772696E648E
:10008E006572203230323000496E697469616C6974
:10009E007A696E672E2E00000000182442424242FA
:1000AE004242422418000000000010701010101080
:1000BE00101010107C00000000003C42424204046C
:1000CE00081020427E00000000003C42420418044A
:1000DE0002024244380000000000040C14242444A0
:1000EE00447E04041E00000000007E404040586420
:1000FE00020242443800000000001C2440405864B4
:10010E00424242241800000000007E4444080810B9
:10011E00101010101000000000003C424242241843
:10012E00244242423C000000000018244242422673
:10013E001A02022438000000000000000018180007
:10014E000000001818000000000000000000000071
:10015E000000000FFF1FFF1FFF1E0F1E0F3E0F3E62
:10016E000F3E0F1C07000018023C0F3C0F3C0F3CCB
:10017E001F3C1F7C0F7FFF7FFF3FFE000000000033
:10018E000000000000000000000000000000000061
:10019E0000030007000F001F001F001F001F001F9D
:1001AE00000E00000004001E001E003E003E003E39
:1001BE00003E001E000E00060000000000000000C1
:1001CE000000000000000000000000000000000F12
:1001DE00FF07FF03FF0007000F000F000F000F07C0
:1001EE00FF0FFE1FFC3C003C003C003C003C003C72
:1001FE00007FF87FFC3FFE000000000000000000C2
:10020E00000000000000000000000000001FFF0FB3
:10021E00FF07FF000F000F000F001F000F0FFF1F43
:10022E00FC0FFE000F001F001F001E001E001E0F01
:10023E00FE1FFE7FFC00000000000000000000001A
:10024E0000000000000000000000003003380738F6
:10025E000F3C1F3C1F7C1F7C1F7C1F3FFE1FFC0F93
:10026E00FC001E003E003E003E003E003E001E0012
:10027E000E0006000000000000000000000000005C
:10028E000000000000000000001FFF3FFE3FFC3C8E
:10029E00003C003C003C003C003FF81FFC0FFE0001
:1002AE000F001F001F001F001E001E0FFE1FFE7FEF
:1002BE00FC00000000000000000000000000000034
:1002CE00000000000000000FFF1FFE1FFC1E001E9E
:1002DE00003E003E003E001FFC0FFE1FFE3C073C92
:1002EE000F3C0F3C0F3C0F7C0F7FFF7FFF3FFE004C
:1002FE0000000000000000000000000000000000F0
:10030E0000000000001FFF07FF03FF000F000F009B
:10031E000F000F000F000700000006000F001F0067
:10032E001F001F001F001F000F000E000600000020
:10033E0000000000000000000000000000000000AF
:10034E000000000FFF1FFF1FFF1E0F1E0F3E0F3E70
:10035E000F3E0F1FFF0FFE1FFE3C0F3C0F3C0F3CCE
:10036E001F3C1F7C0F7FFF7FFF3FFE000000000041
:10037E00000000000000000000000000000000006F
:10038E00001FFF3FFF3FFF3C0F3C0F3C0F3C1F3C4D
:10039E000F3FFF1FFC0FFE000F001F001F001E006F
:1003AE001E001E0FFE1FFE7FFC000000000000005E
:1003BE00000000000000000000000000000000002F
:1003CE000000000000000000000000000000003FE0
:1003DE00FC7FFE3FFC00000000000000000000005B
:1003EE0000000000000000000000000000000000FF
:1003FE0000000000000000000000000000000000EF
:10040E00000000000000000000007E0001E78003F5
:10041E00C3C00781E00F80F00F00F01F00F81E0030
:10042E00F83E00783E007C3E007C3E007C3E007C28
:10043E003E007C3E007C3E007C3E007C3E007C3ECE
:10044E00007C3E007C3E007C3E007C3E007C3E00FC
:10045E00781E00F81F00F80F00F00F81F00781E002
:10046E0003C3C001E780007E000000000000000012
:10047E00000000000000000000000000000000006E
:10048E00000000000000000000000000000000005E
:10049E00000000000000000000000C00001C000026
:1004AE007C0007FC00003C00003C00003C00003CCF
:1004BE0000003C00003C00003C00003C00003C0002
:1004CE00003C00003C00003C00003C00003C0000F2
:1004DE003C00003C00003C00003C00003C00003CA6
:1004EE0000003C00003C00003C00003C00003C00D2
:1004FE00003E00007F0007FFF0000000000000003B
:10050E0000000000000000000000000000000000DD
:10051E0000000000000000000000000000000000CD
:10052E0000000000000000000000FF0003C7C0072D
:10053E0001E00E00F01E00F81E00F83E00783E00AE
:10054E00783F00783F00781F00F80000F80000F0B8
:10055E000001F00003E00003C0000780000F000060
:10056E001E00003C0000780000F00001E00003C017
:10057E000007801C07001C0E00381C00383C007859
:10058E003FFFF83FFFF83FFFF800000000000000BB
:10059E00000000000000000000000000000000004D
:1005AE00000000000000000000000000000000003D
:1005BE0000000000000000000000FE000787800F12
:1005CE0003C01E01E01E01F01E01F01F00F01F000F
:1005DE00F01E00F00000F00001F00001F00003E05A
:1005EE000003C0000F0000FE000007800001E000C5
:1005FE0000F00000F80000F800007800007C1E00FB
:10060E007C3F007C3F007C3F00783E00F81E00F0EF
:10061E000F01E00787C001FF00000000000000008E
:10062E0000000000000000000000000000000000BC
:10063E0000000000000000000000000000000000AC
:10064E000000000000000000000003C00003C00016
:10065E0007C0000FC0000FC0001FC0003FC0003F0A
:10066E00C00077C00077C000E7C001C7C001C7C097
:10067E000387C00707C00707C00E07C01E07C01CB0
:10068E0007C03807C03807C07FFFFE7FFFFE000798
:10069E00C00007C00007C00007C00007C00007C0A9
:1006AE000007C00007E0007FFE0000000000000011
:1006BE00000000000000000000000000000000002C
:1006CE00000000000000000000000000000000001C
:1006DE000000000000000000000FFFF80FFFF80FF1
:1006EE00FFF80E00000E00000E00000E00000E00BF
:1006FE00000E00000E00000E00000E7F000DFFC069
:10070E000FC3E01F01F01E00F81E00F80000780075
:10071E00007C00007C00007C00007C1E007C3F0002
:10072E007C3F00783F00783E00F81E00F01E01F07E
:10073E000E01E00787C000FF00000000000000006F
:10074E00000000000000000000000000000000009B
:10075E00000000000000000000000000000000008B
:10076E00000000000000000000003FC000F1E003A8
:10077E00C1F00781F80701F80F00F01F00001E00FE
:10078E00001E00003E00003E00003E00003E3F8086
:10079E003EFFE03FE3F03F80F83F00F83F007C3E35
:1007AE00007C3E007C3E003C3E003C3E003C3E0059
:1007BE003C3E007C1E007C1F00780F00780F80F0FE
:1007CE0007C0E003E3C000FF0000000000000000CF
:1007DE00000000000000000000000000000000000B
:1007EE0000000000000000000000000000000000FB
:1007FE000000000000000000001FFFFC1FFFFC1F98
:10080E00FFF81F00381C00701C00E03800E03801B3
:10081E00C00001C0000380000380000780000700B5
:10082E00000F00000E00001E00001E00003C000025
:10083E003C00003C00007C0000780000780000F8CE
:10084E000000F80000F80000F80000F80000F800C2
:10085E0000F80000F8000078000000000000000022
:10086E00000000000000000000000000000000007A
:10087E00000000000000000000000000000000006A
:10088E0000000000000000000000FF0007C3C00FC2
:10089E0000E01E00F01E00783C00783C00783C0022
:1008AE007C3E00783E00781F00781F80F00FE1E05C
:1008BE0007FBC001FF8001FF8007BFC00F0FE01EC6
:1008CE0003F03E01F83C00F83C007C7C007C780094
:1008DE003C78003C7C003C3C00783C00781E00706C
:1008EE000F00E007C3C001FF000000000000000081
:1008FE0000000000000000000000000000000000EA
:10090E0000000000000000000000000000000000D9
:10091E0000000000000000000001FE0007C7800F6D
:10092E0001E01E01E01E00F03E00F83C00783C00A5
:10093E00787C007C7C007C7C007C7C007C7C007C59
:10094E003C00FC3E00FC3E01FC1F03FC1F8FFC0F15
:10095E00FF7C03FC7C00007C0000F80000F8000027
:10096E00F80000F00001F00F01E01F01E01F03C0CE
:10097E001F07800F9F0003FC000000000000000016
:10098E000000000000000000000000000000000059
:10099E000000000000000000000000000000000049
:1009AE000000000000000000000000000000000039
:1009BE000000000000000000000000000000000029
:1009CE0000000000000000007C00007E0000FE0021
:1009DE0000FE00007E00007C000000000000000011
:1009EE0000000000000000000000000000000000F9
:1009FE0000000000000000007C00007E0000FE00F1
:100A0E0000FE00007E00007C0000000000000000E0
:100A1E0000000000000000000000000000000000C8
:010A2E0000C7
:103389004500D231373530004200C831354300CAD3
:073399003332004100C6FAC7
:05356200900172EFF082
:10356700900173E4F0900172E0FF900173E0FEEECA
:0C357700C39F5008900173E004F080E94D
:013583002225
:1035840090017EE4F09000C6E0FF90017EE0FEEE44
:0C359400C39F500890017EE004F080E925
:0135A0002208
:0832F000900140EEF0A3EFF0A5
:1032F800900142E4F0A37401F0900140E0FEA3E0E5
:10330800FF900142E0FCA3E0FDD3ED9FEC9E50133B
:10331800123584900143E004F07006900142E00405
:03332800F080D65C
:01332B00227F
:08341100900161EEF0A3EFF061
:1034190090016174FF75F0FF1218F5AFF0FEEF4EE1
:10342900601A900163E4F0900163E0FFEFC3943206
:0C34390050DE900163E004F080ED80D4D0
:013445002264
:0531F500900174EFF0F1
:1031FA00900175E4F0900175E0FFEFC39408502B3D
:10320A00900175E0FF900174E0FEEEA807088002C5
:10321A00C333D8FCFFEF30E704D2A38002C2A3C2B3
:0B322A00A2D2A2900175E004F080CA5F
:013235002276
:1033A100900176EFF0900177EDF0900177E0FFEF7B
:1033B10025E0FFEF24F8FF1231F5900176E0FFEFF1
:1033C10054F0FF1231F5900176E0FFEFC454F0FFA5
:0833D100EF54F0FF1231F52268
:1035A10090017FEFF0C2A4D2A490017FE0FF7D00E3
:0935B1001233A17F5A1235622287
:1035D300900180EFF0C2A4D2A4900180E0FF7D01AE
:0435E3001233A122DC
:05323600900178EFF0AB
:10323B00900179E4F0900179E0FFEFC39408502BF3
:10324B00900179E0FF900178E0FEEEA8070880027C
:10325B00C333D8FCFFEF30E704D2A38002C2A3C272
:0B326B00A1D2A1900179E004F080CA1C
:013276002235
:1033D90090017AEFF090017BEDF090017BE0FFEF37
:1033E90025E0FFEF24F8FF12323690017AE0FFEF73
:1033F90054F0FF12323690017AE0FFEFC454F0FF27
:08340900EF54F0FF12323622ED
:1035BA00900181EFF0C2A4D2A4900181E0FF7D00C6
:0935CA001233D97F5A1235622236
:1035E700900182EFF0C2A4D2A4900182E0FF7D0196
:0435F7001233D92290
:0F2FE900900144EFF0900145EDF0900146EBF0C0
:102FF800900147E4F0900146E0FF900147E0FEEEC3
:10300800C39F503C900144E0FF1235A1900147E076
:10301800FF900145E0FEEE2FFF1235D3900147E007
:1030280004F0900147E0FF900145E0FEEE2FFF120B
:1030380035D3900144E004F0900147E004F080B5F6
:013048002265
:0F304900900148EFF0900149EDF090014AEBF053
:1030580090014BE4F090014AE0FF90014BE0FEEE56
:10306800C39F503C900148E0FF1235BA90014BE0F5
:10307800FF900149E0FEEE2FFF1235E790014BE08B
:1030880004F090014BE0FF900149E0FEEE2FFF12A3
:1030980035E7900148E004F090014BE004F080B57A
:0130A8002205
:0F27E40090014CEFF090014DEDF090014EEBF0B5
:1027F30090014FE4F090014FE0FFEFC394104003CA
:1028030002289590014FE0FF90014EE0FEEE2FFF6E
:102813001235A190014FE0FF90014EE0FEEE2FFF35
:102823001235BA90014CE0FF1235D390014CE0FF12
:102833001235E790014CE0FF1235D390014CE0FFD5
:102843001235E790014FE004F090014FE0FF900153
:102853004EE0FEEE2FFF1235A190014FE0FF9001F5
:102863004EE0FEEE2FFF1235BA90014DE0FF123518
:10287300D390014DE0FF1235E790014DE0FF123593
:10288300D390014DE0FF1235E790014FE004F002D1
:0228930027F824
:012895002220
:0A310800900164EFF0900165EDF016
:10311200900166E4F0900166E0FFEFC39420504214
:10312200900166E0FF900164E0FEEE2FFF1235A1F0
:10313200900166E0FF900164E0FEEE2FFF1235BAC7
:103142007F001235E7900165E0FF1235E77F00123C
:1031520035D3900165E0FF1235D3900166E004F0AB
:0231620080B338
:013164002248
:0F2C6A0090010FEFF0900110EDF0900111EBF0E1
:102C79007F341235A17F361235A1900115E4F09009
:102C89000112E0FF900115E0FEEEC39F5050900144
:102C990010E0FFEF2480FF900115E0FEEF2EFF12F8
:102CA90035A190010FE0FF1235A1900116E4F090D3
:102CB9000111E0FF900116E0FEEEC39F501890014C
:102CC90013E0FF1235D3900114E0FF1235D39001C0
:0E2CD90016E004F080D9900115E004F080A10F
:012CE70022CA
:0F2CE800900117EFF0900118EDF0900119EBF04B
:102CF7007F341235BA7F361235BA90011DE4F09051
:102D0700011AE0FF90011DE0FEEEC39F50509001B5
:102D170018E0FFEF2480FF90011DE0FEEF2EFF1269
:102D270035BA900117E0FF1235BA90011EE4F09012
:102D37000119E0FF90011EE0FEEEC39F50189001BD
:102D47001BE0FF1235E790011CE0FF1235E7900109
:0E2D57001EE004F080D990011DE004F080A180
:012D6500224B
:101A8300900123E4F0A3E4F0302403021B9D9001B2
:101A93001FE0FF1235A1900120E0FBA3E0FAA3E0D1
:101AA300F9900123E0FEA3E0FF8F828E8312184B8F
:101AB300FFEFD394005003021CA8900120E0FBA386
:101AC300E0FAA3E0F9900123E0FEA3E0FF8F828E0A
:101AD3008312184BFFEFC394205003021B8B90011A
:101AE30020E0FBA3E0FAA3E0F9900123E0FEA3E0EA
:101AF300FF8F828E8312184BFFEFC3947E40030245
:101B03001B8B900120E0FBA3E0FAA3E0F9900123F3
:101B1300E0FEA3E0FF8F828E8312184BFF7E0090BE
:101B23000125EEF0A3EFF0900125E0FEA3E0FF1204
:101B330035D3900124E004F07006900123E004F013
:101B4300900120E0FBA3E0FAA3E0F9900123E0FE7B
:101B5300A3E0FF8F828E8312184BFF7E0090012536
:101B6300EEF0A3EFF0900125E0FEA3E0FF1235D3E2
:101B73007F0A7E001232F0900124E004F070069098
:101B83000123E004F0021A99900124E004F07006A6
:101B9300900123E004F0021A992290011FE0FF1242
:101BA30035BA900120E0FBA3E0FAA3E0F99001230A
:101BB300E0FEA3E0FF8F828E8312184BFFEFD394D6
:101BC300005003021CA8900120E0FBA3E0FAA3E06D
:101BD300F9900123E0FEA3E0FF8F828E8312184B5E
:101BE300FFEFC394205003021C97900120E0FBA356
:101BF300E0FAA3E0F9900123E0FEA3E0FF8F828ED9
:101C03008312184BFFEFC3947E4003021C9790018D
:101C130020E0FBA3E0FAA3E0F9900123E0FEA3E0B8
:101C2300FF8F828E8312184BFF7E00900125EEF00A
:101C3300A3EFF0900125E0FEA3E0FF1235E790014A
:101C430024E004F07006900123E004F0900120E00A
:101C5300FBA3E0FAA3E0F9900123E0FEA3E0FF8FEA
:101C6300828E8312184BFF7E00900125EEF0A3EFC6
:101C7300F0900125E0FEA3E0FF1235E77F0A7E0026
:101C83001232F0900124E004F07006900123E00486
:101C9300F0021BA5900124E004F07006900123E0FC
:051CA30004F0021BA586
:011CA8002219
:102D660020253C900150E0FF1235A1900151E0FB77
:102D7600A3E0FAA3E0F9121832FFEFD39400405A09
:102D8600900151E0FBA3E0FAA3E0F9121832FF121A
:102D960035D3900152E475F0011218DF80CD2290F0
:102DA6000150E0FF1235BA900151E0FBA3E0FAA30F
:102DB600E0F9121832FFEFD39400401E900151E063
:102DC600FBA3E0FAA3E0F9121832FF1235E79001EF
:0B2DD60052E475F0011218DF80CD22DE
:1024E400900183EFF09001127420F0900113E4F056
:1024F400900114E4F07B0C7D007F80122C6A900123
:102504001A7420F090011BE4F090011CE4F07B0CA1
:102514007D007F80122CE8900183E0FFEFB4011C62
:102524009001127410F090011374FFF09001147470
:10253400FFF07B0C7D007F80122C6A22900183E0E7
:10254400FFEFB4021C9001127410F090011374FF99
:10255400F090011474FFF07B0C7D107F80122C6AC4
:1025640022900183E0FFEFB4031C90011A7410F071
:1025740090011B74FFF090011C74FFF07B0C7D0034
:102584007F80122CE822900183E0FFEFB4041C90BA
:10259400011A7410F090011B74FFF090011C74FF79
:0D25A400F07B0C7D107F80122CE8220022BD
:0F20C0009000FAEFF09000FBEDF09000FCEBF0D9
:1020CF007F341235A17F361235A1900105E4F090CF
:1020DF000105E0FFEFC39410400302228A9000FB3A
:1020EF00E0FFEF2480FF900105E0FEEF2EFF123599
:1020FF00A19000FAE0FF1235A1900105E0FF9000DA
:10210F00FCE0FEEEC454F024A5F582E43400F58320
:10211F00E5822FF582E43583F583E493FF1235D3FF
:10212F00900105E0FF9000FDE0FEEEC454F024A501
:10213F00F582E43400F583E5822FF582E43583F5EB
:10214F0083E493FFEFF4FF1235D3900105E0FFEF27
:10215F0090014593FF1235D3900105E0FF9000FEEB
:10216F00E0FEEEC454F024A5F582E43400F583E5D7
:10217F00822FF582E43583F583E493FF1235D390F4
:10218F000105E0FF9000FFE0FEEEC454F024A5F53A
:10219F0082E43400F583E5822FF582E43583F583FD
:1021AF00E493FFEFF4FF1235D3900105E0FFEF90BA
:1021BF00014593FF1235D3900105E0FF900100E038
:1021CF00FEEEC454F024A5F582E43400F583E582D5
:1021DF002FF582E43583F583E493FF1235D3900115
:1021EF0005E0FF900101E0FEEEC454F024A5F58256
:1021FF00E43400F583E5822FF582E43583F583E43B
:10220F0093FFEFF4FF1235D3900105E0FFEF90013C
:10221F004593FF1235D3900105E0FF900102E0FED8
:10222F00EEC454F024A5F582E43400F583E5822F43
:10223F00F582E43583F583E493FF1235D3900103E0
:10224F00E0FEA3E0FFEFC454F024A5F582E43400D0
:10225F00F583C083C082900105E0FFD082D083E573
:10226F00822FF582E43583F583E493FFEFF4FF12B9
:0B227F0035D3900105E004F00220DEE2
:01228A002231
:0F1ECA00900127EFF0900128EDF0900129EBF047
:101ED9007F341235BA7F361235BA90012DE4F0906D
:101EE900012DE0FFEFC3941F40030220BF9001289A
:101EF900E0FFEF2480FF90012DE0FEEF2EFF123569
:101F0900BA900127E0FF1235BA900129E0FF75F078
:101F19003EEFA42455F582E5F03401F583C083C072
:101F29008290012DE0FFD082D08375F002EF121A62
:101F39001FE493FF1235E7900129E0FF75F03EEFAA
:101F4900A42456F582E5F03401F583C083C082905C
:101F5900012DE0FFD082D08375F002EF121A1FE441
:101F690093FF1235E790012AE0FF75F03EEFA424B4
:101F790055F582E5F03401F583C083C08290012DC7
:101F8900E0FFD082D08375F002EF121A1FE493FFAD
:101F99001235E790012AE0FF75F03EEFA42456F5CB
:101FA90082E5F03401F583C083C08290012DE0FF02
:101FB900D082D08375F002EF121A1FE493FF123515
:101FC900E790012DE0FF75F002EFA424C1F582E549
:101FD900F03403F583E493FF1235E790012DE0FF18
:101FE90075F002EFA424C2F582E5F03403F583E429
:101FF90093FF1235E790012BE0FF75F03EEFA42423
:1020090055F582E5F03401F583C083C08290012D36
:10201900E0FFD082D08375F002EF121A1FE493FF1C
:102029001235E790012BE0FF75F03EEFA42456F539
:1020390082E5F03401F583C083C08290012DE0FF71
:10204900D082D08375F002EF121A1FE493FF123584
:10205900E790012CE0FF75F03EEFA42455F582E5E9
:10206900F03401F583C083C08290012DE0FFD08256
:10207900D08375F002EF121A1FE493FF1235E7902F
:10208900012CE0FF75F03EEFA42456F582E5F0340B
:1020990001F583C083C08290012DE0FFD082D083F7
:1020A90075F002EF121A1FE493FF1235E790012D24
:0620B900E004F0021EE845
:0120BF0022FE
:0F0A2F00900106EFF0900107EDF0900108EBF059
:100A3E007F341235A17F341235BA7F361235A17F3D
:100A4E00361235BA90010DE4F090010DE0FFEFC3C0
:100A5E0094304003020EA290010DE0FFEFC39420EC
:100A6E004003020C89900107E0FFEF2480FF900104
:100A7E000DE0FEEF2EFF1235A1900106E0FF1235BC
:100A8E00A190010EE4F090010EE0FFEFC39403502D
:100A9E005490010DE0FF7E02EF8EF0A4FFAEF090B9
:100AAE00010DE0FD7C00EF2DFFEE3CFE90010EE00F
:100ABE00FD7C00EF2DFFEE3CFE900108E0FD75F091
:100ACE0090EDA424FFF582E5F03403F583E5822F43
:100ADE00F582E5833EF583E493FF1235D390010E44
:100AEE00E004F080A190010EE4F090010EE0FFEF23
:100AFE00C39403505490010DE0FF7E02EF8EF0A4DC
:100B0E00FFAEF090010DE0FD7C00EF2DFFEE3CFE00
:100B1E0090010EE0FD7C00EF2DFFEE3CFE900109F2
:100B2E00E0FD75F090EDA424FFF582E5F03403F5B9
:100B3E0083E5822FF582E5833EF583E493FF12353C
:100B4E00D390010EE004F080A190010EE4F090012C
:100B5E000EE0FFEFC39403505490010DE0FF7E02B0
:100B6E00EF8EF0A4FFAEF090010DE0FD7C00EF2DB6
:100B7E00FFEE3CFE90010EE0FD7C00EF2DFFEE3C03
:100B8E00FE90010AE0FD75F090EDA424FFF582E5DC
:100B9E00F03403F583E5822FF582E5833EF583E499
:100BAE0093FF1235D390010EE004F080A190010E58
:100BBE00E4F090010EE0FFEFC39403505490010D4A
:100BCE00E0FF7E02EF8EF0A4FFAEF090010DE0FD8F
:100BDE007C00EF2DFFEE3CFE90010EE0FD7C00EF61
:100BEE002DFFEE3CFE90010BE0FD75F090EDA42480
:100BFE00FFF582E5F03403F583E5822FF582E58378
:100C0E003EF583E493FF1235D390010EE004F0809D
:100C1E00A190010EE4F090010EE0FFEFC3940340AB
:100C2E0003020E9990010DE0FF7E02EF8EF0A4FFFD
:100C3E00AEF090010DE0FD7C00EF2DFFEE3CFE903E
:100C4E00010EE0FD7C00EF2DFFEE3CFE90010CE06E
:100C5E00FD75F090EDA424FFF582E5F03403F583E5
:100C6E00E5822FF582E5833EF583E493FF1235D3BB
:100C7E0090010EE004F0809E020E9990010DE0FFAF
:100C8E00900107E0FEEE2FFFEF2460FF1235BA90C1
:100C9E000106E0FF1235BA90010EE4F090010EE06D
:100CAE00FFEFC39403505490010DE0FF7E02EF8ED0
:100CBE00F0A4FFAEF090010DE0FD7C00EF2DFFEEF5
:100CCE003CFE90010EE0FD7C00EF2DFFEE3CFE9011
:100CDE000108E0FD75F090EDA424FFF582E5F034F7
:100CEE0003F583E5822FF582E5833EF583E493FFDA
:100CFE001235E790010EE004F080A190010EE4F0B1
:100D0E0090010EE0FFEFC39403505490010DE0FFED
:100D1E007E02EF8EF0A4FFAEF090010DE0FD7C00A0
:100D2E00EF2DFFEE3CFE90010EE0FD7C00EF2DFF5F
:100D3E00EE3CFE900109E0FD75F090EDA424FFF568
:100D4E0082E5F03403F583E5822FF582E5833EF5E7
:100D5E0083E493FF1235E790010EE004F080A1903A
:100D6E00010EE4F090010EE0FFEFC3940350549097
:100D7E00010DE0FF7E02EF8EF0A4FFAEF090010DAC
:100D8E00E0FD7C00EF2DFFEE3CFE90010EE0FD7CC1
:100D9E0000EF2DFFEE3CFE90010AE0FD75F090EDA8
:100DAE00A424FFF582E5F03403F583E5822FF58266
:100DBE00E5833EF583E493FF1235E790010EE004E0
:100DCE00F080A190010EE4F090010EE0FFEFC394CD
:100DDE0003505490010DE0FF7E02EF8EF0A4FFAEA3
:100DEE00F090010DE0FD7C00EF2DFFEE3CFE90013A
:100DFE000EE0FD7C00EF2DFFEE3CFE90010BE0FDC2
:100E0E0075F090EDA424FFF582E5F03403F583E54B
:100E1E00822FF582E5833EF583E493FF1235E7904A
:100E2E00010EE004F080A190010EE4F090010EE0BE
:100E3E00FFEFC39403505490010DE0FF7E02EF8E3E
:100E4E00F0A4FFAEF090010DE0FD7C00EF2DFFEE63
:100E5E003CFE90010EE0FD7C00EF2DFFEE3CFE907F
:100E6E00010CE0FD75F090EDA424FFF582E5F03461
:100E7E0003F583E5822FF582E5833EF583E493FF48
:100E8E001235E790010EE004F080A190010DE00410
:040E9E00F0020A57FD
:010EA200222D
:10332C00C2A0D2A5C2A5D2A57F301235A17F301282
:10333C0035BA7F061235A17F061235BA7F011235D8
:10334C00A17F011235BA7F0C1235A17F0C1235BA50
:0B335C007F021235A17F021235BA2259
:101208007F011215D87F327E001232F090011274DD
:1012180020F0900113E4F0900114E4F07B0C7D00C1
:101228007F80122C6A90011A7420F090011BE4F060
:1012380090011CE4F07B0C7D007F80122CE87F3449
:101248001235A17F341235A112332C9000E1E0FF52
:10125800EFB4011FC2259001507491F07BFF7A0012
:10126800793E900151EBF0A3EAF0A3E9F0122D6664
:1012780002135B9000E1E0FFEFB4041FC225900168
:10128800507491F07BFF7A00793E900151EBF0A306
:10129800EAF0A3E9F0122D6602135B9000E1E0FF8B
:1012A800EFB4021FC2259001507491F07BFF7A00C1
:1012B8007944900151EBF0A3EAF0A3E9F0122D660E
:1012C80002135B9000E1E0FFEFB4031EC22590011A
:1012D800507491F07BFF7A00794A900151EBF0A3AA
:1012E800EAF0A3E9F0122D6680699000E1E0FFEFD3
:1012F800701EC2259001507491F07BFF7A007951DD
:10130800900151EBF0A3EAF0A3E9F0122D668043B7
:101318009000E1E0FFEFB4051EC2259001507491E2
:10132800F07BFF7A007957900151EBF0A3EAF0A324
:10133800E9F0122D66801CC2259001507491F07B53
:10134800FF7A007951900151EBF0A3EAF0A3E9F09C
:10135800122D66C2259001507480F07BFF7A0079C7
:101368005D900151EBF0A3EAF0A3E9F0122D66C2FB
:10137800259001507480F07BFF7A007963900151C9
:10138800EBF0A3EAF0A3E9F0122D667B017A00796D
:10139800D2C003C002C0017BFF7A00796A90007B4B
:1013A800EBF0A3EAF0A3E9F09000E7E0FEA3E0FF8A
:1013B80090007EEEF0A3EFF0D001D002D003120F20
:1013C800087B017A0079C8C003C002C0017BFF7A9C
:1013D80000796E90007BEBF0A3EAF0A3E9F09000AF
:1013E800DBE0FEA3E0FF7C007D3C12188A90007EC3
:1013F800EEF0A3EFF0D001D002D003120F087B016A
:101408007A0079CAC003C002C0017BFF7A007973F1
:1014180090007BEBF0A3EAF0A3E9F09000DBE0FE9C
:10142800A3E0FF7C007D3C12188A90007EECF0A3BC
:10143800EDF0D001D002D003120F08D22590015050
:101448007492F07BFF7A007979900151EBF0A3EA6E
:10145800F0A3E9F0122D66D2259001507499F07B23
:10146800FF7A00797D900151EBF0A3EAF0A3E9F04F
:10147800122D66D2259001507490F07B017A007984
:10148800D2900151EBF0A3EAF0A3E9F0122D667BAC
:10149800017A0079C8C003C002C0017BFF7A0079D5
:1014A8006E90007BEBF0A3EAF0A3E9F09000DFE098
:1014B800FEA3E0FF7C007D3C12188A90007EEEF0CF
:1014C800A3EFF0D001D002D003120F087B017A00FD
:1014D80079CAC003C002C0017BFF7A00797390000B
:1014E8007BEBF0A3EAF0A3E9F09000DFE0FEA3E0D5
:1014F800FF7C007D3C12188A90007EECF0A3EDF092
:10150800D001D002D003120F08D225900150749751
:10151800F07B017A0079C8900151EBF0A3EAF0A3BF
:10152800E9F0122D66D2259001507498F07B017A6B
:101538000079CA900151EBF0A3EAF0A3E9F0122D6B
:07154800667F0112154F221E
:102AE3009000DBE0FEA3E0FF7C007D3C12188A7CB3
:102AF300007D0A12188AAB079000DBE0FEA3E0FF1B
:102B03007C007D3C12188A7C007D0A12188AAA0573
:102B13009000DBE0FEA3E0FF7C007D3C12188A7E80
:102B2300007F0ACFCDCFCECCCE12188A90010BEF07
:102B3300F0900109EAF090010A740AF09000DBE0DA
:102B4300FEA3E0FF7C007D3C12188A7E007F0ACF43
:102B5300CDCFCECCCE12188AAF0590010CEFF07D0D
:072B6300007F84120A2F22FB
:1025B1007FFA7E001232F09001127420F090011324
:1025C100E4F0900114E4F07B0C7D007F80122C6A12
:1025D10090011A7420F090011BE4F090011CE4F0CA
:1025E1007B0C7D007F80122CE89001127420F0900A
:1025F1000113E4F0900114E4F07B0C7D007F801264
:102601002C6A90011A7420F090011BE4F090011CD7
:10261100E4F07B0C7D007F80122CE812332CC22564
:102621009001507491F07BFF7A007982900151EB17
:10263100F0A3EAF0A3E9F0122D667FD07E071232F3
:10264100F0D2259001507493F07BFF7A0079969037
:102651000151EBF0A3EAF0A3E9F0122D667F041219
:1026610024E47F887E131232F07F041224E47F88F1
:062671007E131232F0227C
:0F363F0043D10243D10475D52675D40175AF2050
:01364E002259
:10154F00EFD3940540037FFF22740F2F2FF8E6206F
:10155F00E5F4C2AFE64430F6D2AFAE0CEEC39F5007
:10156F00210E741A2EF8E6F908E618BE050274FF6C
:10157F00FDED69600909E71919F7090980F31616D6
:10158F0080DAEED39F400405810581EED39F402280
:10159F00741A2EF808E6F9EEB50C02A981180606A2
:1015AF00E6FDED6960091919E70909F71980F31EBE
:1015BF0080D9EF241AF8E604F8EF2F0490364F93F2
:0915CF00F608EF2F93F67F0022CD
:1015D800EFD3940540037FFF22EF23240FF8E63072
:1015E800E5F4C2AFE6548CF6D2AFE50CB5070A7441
:1015F8001A2FF8E6F58102173B502E741B2FF8E6D8
:10160800BF050274FFFD18E6F9741A2FF8FBE6FC13
:10161800E96C6008A805E7F61D1980F4A803A6057B
:101628001FE50CB507E37F0022741B2FF8E6FD18B1
:1016380086010F741A2FF8A601088604E50CB50771
:1016480002AC81ED6C60080D09A805E6F780F4E5A9
:091658000CB507DE89817F002238
:101661008FF0E4FFFEE50C23240EF8C2A930F70D3C
:101671007F08E6600B2DF660325030800730F106AE
:10168100EDF660277E020830F010C2AFE610E725C4
:101691000E30E20CD2AF7F048014C2AFE610E71522
:1016A10054EC4EF6D2AFD2A902173B7F0808EF44A3
:0F16B10083F4C2AF56C6D2AFD2A954804FFF22E6
:03000B000216C515
:1016C000C2AF80FE321216C485D00B75D008AAE0D6
:1016D000C28CE58A24F7F58AE58C34D8F58CD28C57
:1016E000EC241BF8E6BC050274FFC39581B414001A
:1016F00040CE7906780E16E608700BC2AFE630E1F0
:10170000034418F6D2AF08D9EDEA8BD03026012277
:10171000D50DFCC0E0C0D0C0F0C083C082C000C006
:1017200001C002C003C004C005C006C007E50C2309
:10173000240FF87440C2AF46F6D2AFD226E50CFFB4
:1017400023240FF80F0808BF06047F00780FE63047
:10175000E4F200E50CC39F5020050C741A250CF828
:10176000E6FDA68108E6AE0CBE050274FFCDF8E8E2
:101770006D60E008E6C0E080F6E50CD39F4027E509
:101780000C241BF8E6AE0CBE050274FFFD18E6CD76
:10179000F8E5816D6006D0E0F61880F5E50C241AB6
:1017A000C8F6150C80D3750D05E50C23240FF87FC2
:1017B00004C2AFE610E61E30E00310E20C7F0030FA
:0517C000E10730E30425
:1017C5007F0854F4547CC6D2AF54804207C2262207
:1017D500F6D2AFD007D006D005D004D003D002D0C2
:1017E50001D000D082D083D0F0D0D0D0E0C2262264
:1017F500781AA68174056006FF0876FFDFFB7F0671
:10180500E4780EF608F608DFFA780F763090364F52
:10181500740193C0E0E493C0E0750D05438901753B
:0D1825008AF0758CD8D28CD2AFD2A92205E2
:1029D8000217F5E493A3F8E493A34003F68001F209
:1029E80008DFF48029E493A3F85407240CC8C33300
:1029F800C4540F4420C8834004F456800146F6DFCF
:102A0800E4800B0102040810204080903367E47EC4
:102A1800019360BCA3FF543F30E509541FFEE493C3
:102A2800A360010ECF54C025E060A840B8E493A38A
:102A3800FAE493A3F8E493A3C8C582C8CAC583CAB5
:102A4800F0A3C8C582C8CAC583CADFE9DEE780BE6D
:0133A000002C
:10183200BB010689828A83E0225002E722BBFE02B4
:09184200E32289828A83E49322E7
:10184B00BB010CE58229F582E5833AF583E0225052
:10185B0006E92582F8E622BBFE06E92582F8E2229C
:0D186B00E58229F582E5833AF583E49322B6
:10187800EF8DF0A4A8F0CF8CF0A428CE8DF0A42E84
:02188800FE223E
:10188A00BC000BBE0029EF8DF084FFADF022E4CC42
:10189A00F875F008EF2FFFEE33FEEC33FCEE9DEC0B
:1018AA00984005FCEE9DFE0FD5F0E9E4CEFD22ED51
:1018BA00F8F5F0EE8420D21CFEADF075F008EF2F9B
:1018CA00FFED33FD4007985006D5F0F222C398FD8C
:0518DA000FD5F0EA2229
:1018DF00C5F0F8A3E028F0C5F0F8E5821582700294
:0618EF001583E038F02231
:1018F500A3F8E0C5F025F0F0E582158270021583A6
:06190500E0C838F0E82202
:10190B0075F008758200EF2FFFEE33FECD33CDCC93
:10191B0033CCC58233C5829BED9AEC99E582984016
:10192B000CF582EE9BFEED9AFDEC99FC0FD5F0D6F3
:10193B00E4CEFBE4CDFAE4CCF9A88222B800C1B91D
:10194B000059BA002DEC8BF084CFCECDFCE5F0CB5B
:10195B00F97818EF2FFFEE33FEED33FDEC33FCEB94
:10196B0033FB10D703994004EB99FB0FD8E5E4F94F
:10197B00FA227818EF2FFFEE33FEED33FDEC33FC3C
:10198B00C933C910D7059BE99A4007EC9BFCE99A30
:10199B00F90FD8E0E4C9FAE4CCFB2275F010EF2F75
:1019AB00FFEE33FEED33FDCC33CCC833C810D70775
:1019BB009BEC9AE899400AED9BFDEC9AFCE899F8B0
:0E19CB000FD5F0DAE4CDFBE4CCFAE4C8F92243
:1019D900EB9FF5F0EA9E42F0E99D42F0EC6480C885
:0619E90064809845F02225
:1019EF00EB9FF5F0EA9E42F0E99D42F0E89C45F04E
:0119FF0022C5
:101A0000E8600FECC313FCED13FDEE13FEEF13FFC4
:031A1000D8F122E8
:0C1A1300ECF0A3EDF0A3EEF0A3EFF02246
:0C1A1F00A42582F582E5F03583F58322D2
:101A2B00D083D082F8E4937012740193700DA3A34A
:101A3B0093F8740193F5828883E47374029368605E
:061A4B00EFA3A3A380DF5E
:100EA300E534247BF582E43400F583E005342290B5
:100EB300007830220390007BE475F001121A63027C
:100EC3001832201BE97F2ED21B8018EF540F249079
:100ED300D43440D4FF301F0BEF24BFB41A005003A7
:100EE3002461FFE535600215350538E538700205E4
:100EF3003730220E900078E475F001121A63EF0286
:100F03001A510234D37403D2228003E4C222F5348B
:100F1300900078121A7AE4F535F537F538E535603F
:100F2300077F20120EE680F57536FFC21CC21BC276
:100F33001DC21EC220C221C223120EB2FF700D3089
:100F430022057F00120EF7AF38AE3722B4255FC2F9
:100F5300D5C21F120EB2FF24D0B40A00501A75F086
:100F63000A783530D50508B6FF0106C6A426F62053
:100F7300D5047002D21E80D924CFB41A00EF5004D6
:100F8300C2E5D21F0210F8D21C80C6D21B80C0D289
:100F93001D80BCD2D580BAD22080B47F20120EE649
:100FA300201D077401B5350040F1120EA3FF120E88
:100FB300E6020F20D223D2218095120EA3FB120E3C
:100FC300A3FA120EA3F94A4B700679C97A117BFF73
:100FD300201D2EE535602A7E008E8275830012184F
:100FE3004B60060EEE653670F0C2D5EBC0E0EAC08A
:100FF300E0E9C0E0EE12113FD0E0F9D0E0FAD0E032
:10100300FB121832FF60AAEBC0E0EAC0E0E9C0E0DF
:10101300120EE6D0E02401F9D0E03400FAD0E0FB70
:10102300E5360460DCD536D980877BFF7A11793BBE
:10103300D21D809C791080027908C221C2238008C6
:10104300D2D5790A8004790AC2D5E536047002F54F
:1010530036E4FAFDFEFF120EA3FC7B08201C1312DC
:101063000EA3FD7B10301B0A120EA3FE120EA3FF6C
:101073007B20EC3382D592D55013C3E4301B069FFB
:10108300FFE49EFEE4201C039DFDE49CFCE4CBF8FE
:10109300C21CEC700CCFCECDCCE824F8F870F380F2
:1010A30017C3EF33FFEE33FEED33FDEC33FCEB33CD
:1010B300FB994002FB0FD8E9EB301C05F8D0E0C4E4
:1010C30048B21CC0E00AEC4D4E4F78207B0070C242
:1010D300EAB5360040BCC0E0121141D0F0D0E020A8
:1010E3001C04C4C0E0C4B21CC0F0120ECFD0F0D5B3
:1010F300F0EB020F20121A2B0FBD531037580F8E2F
:101103004C0F8A42103B4F1043441043490FA343F3
:08111300104955102D46102D66
:10111B0045102D4711E9500F922D0F962E0FB92B1D
:10112B000F9A230FB72011D22A0F524800000FB18C
:10113B003F3F3F00790AA2D5201E14302009B91079
:10114B00020404B9080104A2D52021025001042095
:10115B001D68921DB535005034C0E07F20301E193C
:10116B007F30A21D72217220500F121198C21DC226
:10117B0021C220C2237F30800F302003E9C0E01250
:10118B000EE6302003D0E0F9D0E0B535CC30201797
:10119B007F30B9100C120EE67F58301F077F788016
:1011AB0003B90803120EE6301D057F2D020EE67FF4
:1011BB00202023F87F2B2021F322921D80CF286E35
:1011CB00756C6C2900D21C120EA3301CF8C21C7853
:1011DB003530D50108F6020F522D50434958120EE7
:1011EB00A32403B405004001E49011E493120ED73D
:0D11FB00743A120ED7D21E7535040210375B
:0C365B00EE30E707C3E49FFFE49EFE2270
:101A5100BB010689828A83F0225002F722BBFE0174
:021A6100F3226E
:101A6300F8E0FBA3A3E0F925F0F0E582158270020C
:071A73001583E0FA38F022B0
:091A7A00EBF0A3EAF0A3E9F0226D
:1034D300EFB40A07740D1234DE740A309811A899F8
:1034E300B8130CC2983098FDA899C298B811F63059
:0734F30099FDC299F5992231
:00000001FF
